:020000040800F2
:10000000983F002091010008E11C00083917000802
:1000100000000000000000000000000000000000E0
:10002000000000000000000000000000B5260008ED
:1000300000000000000000001D1E0008652B0008E5
:10004000C10100080000000099240008C101000857
:10005000C1010008C101000889110008BD11000894
:1000600000000000C1010008C1010008C101000832
:10007000C1010008C1010008B52C00080000000003
:10008000C10100080000000000000000E52B00088E
:10009000000000001D2C0008992C00083D170008E6
:1000A00000000000C1010008000000002930000825
:1000B0004D3000080000000000000000353A000844
:1000C00000F002F800F038F80CA030C80838241806
:1000D0002D18A246671EAB4654465D46AC4201D180
:1000E00000F02AF87E460F3E0FCCB646012633427A
:1000F00000D0FB1AA246AB4633431847785900009C
:10010000985900000023002400250026103A01D34E
:1001100078C1FBD8520700D330C100D50B607047BF
:1001200010B5642902D100F0B7F810BD002010BD51
:100130001FB51FBD10B510BD00F02DFC1146FFF717
:10014000F7FF04F0FDFD00F045FC03B4FFF7F2FFFC
:1001500003BC00F04BFC000070B505460C4616468B
:1001600002E00FCC0FC5103E102EFAD2082E02D39B
:1001700003CC03C5083E042E07D301CC01C5361FAE
:1001800003E021782970641C6D1C761EF9D270BDC5
:100190000F4880F308880F480168090E0E4A914203
:1001A00005D10E480E4901600E480F4901600F4805
:1001B00080470F480047FEE7FEE7FEE7FEE7FEE761
:1001C000FEE700000B480C490C4A0D4B704700003D
:1001D000983F0020040000001F000000181002409B
:1001E000010000000000014000000000692B000831
:1001F000C1000008981F0020983F0020982F002081
:10020000982F00200FB41CB5074B06AA7B44694603
:100210000090059800F093FB0020694600F0A2FBD7
:100220001CBC08BC04B0184755070000F8B50E46C2
:100230000446002020622046E1688847002829D033
:10024000252802D06268A16820E0E16820460027E6
:10025000884705001ED028464138192802D80127B2
:10026000FF0220353246204627602946FFF758FF17
:10027000002808D0012804D0F61DF608F60008363C
:10028000D9E7361DD7E762682846A1689047206AFB
:10029000401CCFE7206AF8BDF7B500257529106826
:1002A000009914A611D0C046C046002802DA404288
:1002B00011A608E0009909688A0701D50FA602E097
:1002C000490704D50EA6012501E0C046C046009F9F
:1002D0000024243704E000F04AFB30313955641C17
:1002E0000028F8D12B4632462146009800F0C9FA82
:1002F000FEBD0000000000002D0000002B000000EB
:100300002000000010B5431E5C785B1C002CFBD164
:1003100005E00C78491C1C705B1C002C03D0521E9D
:10032000F7D20021197010BD034670B502460B4389
:100330009B070FD10E4CE60100E008C208C91D1B47
:100340009D433542F9D0D9B21170521C00290DD00D
:100350001B0AF8E70B78491C1370521C002B05D0C0
:100360000B78491C1370521C002BF3D170BD000098
:100370000101010130B5441C03E00178401C002953
:100380000DD08107F9D10B4BDD0104C8D11A91437F
:100390002940FAD0001B0A0603D0C01E30BD001B46
:1003A00030BD0A0401D0801E30BD0902FCD0401EC1
:1003B00030BD000001010101421E5378521C002B88
:1003C000FBD10B78491C1370521C002BF9D17047DC
:1003D000F8B5042A2CD3830712D00B78491C03707C
:1003E000401C521E83070BD00B78491C0370401C25
:1003F000521E830704D00B78491C0370401C521E08
:100400008B079B0F05D0C91ADF002023DE1B08C90C
:100410000AE0FFF7A1FEF8BD1D4608C9FD401C46D5
:10042000B4402C4310C0121F042AF5D2F308C91A95
:10043000521EF0D40B78491C0370401C521EEAD4A3
:100440000B78491C0370401C012AE4D40978017020
:10045000F8BDD2B210B513029A1813049A1800F01E
:100460000EF810BD01E004C0091F0429FBD28B0760
:1004700001D50280801CC90700D002707047002996
:100480000BD0C30702D00270401C491E022904D3BE
:10049000830702D50280801C891EE3E70022EEE775
:1004A0000022DFE7F8B507460B46394619438907AE
:1004B00013D1164CE601042A0FD302CB0D1B8D433A
:1004C000354202D102C0121FF5E7CBB20370401CC7
:1004D000521E002B13D0090AF7E7002A14D019780E
:1004E000521E5B1C0170401C002908D0002A0BD052
:1004F0001978521E5B1C0170401C0029EDD1002AA6
:1005000002D01146FFF7CAFF3846F8BD01010101CC
:100510000378C2781946437812061B021943837880
:10052000C0781B04194311430902090A0006084355
:100530007047002203098B422CD3030A8B4211D34C
:1005400000239C464EE003460B433CD40022430864
:100550008B4231D303098B421CD3030A8B4201D354
:1005600094463FE0C3098B4201D3CB01C01A5241EC
:1005700083098B4201D38B01C01A524143098B423C
:1005800001D34B01C01A524103098B4201D30B0125
:10059000C01A5241C3088B4201D3CB00C01A52414A
:1005A00083088B4201D38B00C01A524143088B420F
:1005B00001D34B00C01A5241411A00D201465241A8
:1005C000104670475DE0CA0F00D04942031000D3C7
:1005D0004042534000229C4603098B422DD3030A1C
:1005E0008B4212D3FC22890112BA030A8B420CD32C
:1005F000890192118B4208D3890192118B4204D355
:1006000089013AD0921100E08909C3098B4201D3D4
:10061000CB01C01A524183098B4201D38B01C01A0E
:10062000524143098B4201D34B01C01A5241030985
:100630008B4201D30B01C01A5241C3088B4201D334
:10064000CB00C01A524183088B4201D38B00C01AE1
:100650005241D9D243088B4201D34B00C01A5241B8
:10066000411A00D20146634652415B10104601D345
:100670004042002B00D54942704763465B1000D3CF
:10068000404201B50020C046C04602BD70477047D9
:1006900070470000F0B5FF252D04C609C209FF27E9
:1006A00004462E400137CB093E4348402A402B40A8
:1006B0000746002A6BD0002B69D0AA4267D0AB4214
:1006C00065D0002800DA32460125ED0529432C4388
:1006D00009022002090AD21A4B0C7F24E31A434C68
:1006E000000A7C44E35C7D242404121914145B008A
:1006F000A218884201D3521C00E0400049420C4637
:100700005C4324115C43DB016415E318040A5C4379
:10071000C502200D0C4644436419250A5D4323039A
:10072000EC0C0D46654300030019EB184C42A34244
:1007300001D35B18401CD4052018002B07D05B00A8
:10074000C91804D3401C002901D1400840003F21B2
:1007500089048A4209D3002A08DC1106090F04D053
:10076000032149074018C00FC007F0BD0122410016
:10077000120689187F2252069142F6D205214907B6
:10078000C84201D59010F0BDFF20C005F0BD002F7C
:1007900000DA32461648AA4207D2AB4205D2190205
:1007A000090E17D0F80FC007F0BDFF2563002D0616
:1007B000AB42F9D84900A942F6D8AB4201D1A942CF
:1007C000F2D0A94201D1002101E061004908D00521
:1007D0000843F0BD1102090EFBD0FF200243D005F3
:1007E000F0BD0A460146104654E70000D75100000C
:1007F0000000C07F0102C21504D00123DB071943AA
:10080000002A0ADB9E239A1A02D40846D040704779
:10081000FF2241001206914201D900207047C01703
:10082000C04370471F22030C02D10F2200041CD0CA
:10083000030E01D10002083A030F01D10001121F7B
:10084000830F01D18000921E002801DB4000521E60
:10085000D2055118021251181922904004D3491C94
:10086000002801D14908490008467047C10FC9074F
:1008700000D04042012292071143D3E701218907AA
:10088000D0E7FFB504460D4681B0243000902168C2
:10089000880604D51022E0699143216000E0012020
:1008A000A84201DD471B00E000270498A1697A19DE
:1008B0001018081AA0612078C00602D42046C0464D
:1008C000C046002608E003986268A168805D9047F2
:1008D000206A401C761C206204988642F3DB207854
:1008E000C0060AD52046C046C04606E06268A16838
:1008F00030209047206A401C206238467F1E002826
:10090000F4DC07E000986268A168405D9047206AC7
:10091000401C206228466D1E0028F3DC2046C0469D
:10092000C0462078000602D5022005B0F0BD0120A7
:10093000FBE7000001694A1C02610878704700B5B6
:100940008FB00291002105910549019379440391EB
:10095000114604906846FFF769FC0FB000BD000027
:10096000E5FFFFFF0A681070521C0A6070470146DD
:100970008008081A02091018020A1018020C101830
:10098000C008820012185200891A01E0401C0A397E
:100990000A29FBD27047754600F024F8AE460500E0
:1009A00069465346C008C000854618B020B5FFF719
:1009B00009FC60BC00274908B6460026C0C5C0C572
:1009C000C0C5C0C5C0C5C0C5C0C5C0C5403D490043
:1009D0008D46704710B50446C046C0462046FFF716
:1009E000B4FB10BD00487047341F00200149182097
:1009F000ABBEFEE726000200704770B58C18057884
:100A0000401C6B075B0F01D10378401C2A1106D1F3
:100A10000278401C03E00678401C0E70491C5B1EE7
:100A2000F9D12B0705D40023521E0DD40B70491C9D
:100A3000FAE70378401CCB1A921C03E01D780D7076
:100A4000491C5B1C521EF9D5A142D8D3002070BDB1
:100A500010B504460548844207D10121401501F034
:100A60001FFA0021601501F01BFA10BD002401409F
:100A70001CB50121880401F0D3F9012168460171F8
:100A800000218171C17103214171102000906946DC
:100A9000014800F0F3FC1CBD00040048FEB5002036
:100AA00069468880964D1DE1088907073F0F22D0CF
:100AB0009348B90040380E183068694688808888A5
:100AC00000047CD530688F490840306028208E496A
:100AD00078434418B834A07A0028207870D000F009
:100AE00049FD400420786CD500F04CFD00900028B2
:100AF00068D0E1888CE00889C00612D4804840386C
:100B00000168824A114001607F4C207E00F06AFD3E
:100B10002063A16A0818A0627D480021006842682D
:100B2000EAE0794C764EB834403E316868468180C0
:100B30008088000513D5207800F044FDA0610246AE
:100B40002046A188A83801F013F930686D490840A3
:100B500030606F48006881686B488847C2E068462B
:100B6000808800049FD53168664801403160207854
:100B700000F028FDA061002809D023690246A18861
:100B8000184601F0F5F8A169206940182061604815
:100B90000021006802685C48904728695D4980B27E
:100BA0004118E0683E280ED9C202120CC00601D1DD
:100BB000521E92B290020122D20310430AE04AE090
:100BC00015E01FE028E0C203120CC00701D0521C40
:100BD00092B29002088030684F4908400121090311
:100BE0004840490048404D49084330607AE000F0F1
:100BF000E9FC0090002813D0A1882069009A01F038
:100C0000B7F80DE000F0CEFC0090002804D0218958
:100C10002069009A01F0ACF82078002100F014FC63
:100C2000A16900980818A061216900980A1822613A
:100C30006069002803D0E36800998B4206D93448E4
:100C40002178006802683048904704E083B2217838
:100C50002D4800F084F968468088000642D5282097
:100C6000474329483C183068284908403060183408
:100C7000A07A002820780DD000F07CFC4006207877
:100C800013D500F07FFCA061002819D00246E1884E
:100C9000206913E000F0A6FCA061002814D00246F1
:100CA000A188206902F03AFF0EE000F07BFCA06111
:100CB000002805D0236902462189184602F02EFF3C
:100CC0002078012100F0C0FB207800F08BFCA061AF
:100CD00021690A18226163692178002B09D00A482A
:100CE00000F0B8F9686869460881000400D5DBE6C1
:100CF000FEBD07480068426803489047F2E70000DD
:100D0000405C00408F0F0000341800200F8F00005F
:100D100014020020066000408FBF000080800000A9
:100D20008100064808180168490405D50168044A8D
:100D30001140044A1143016070470000005C00400C
:100D40008F8F000080C000008100064808180168ED
:100D5000490605D50168044A1140044A114301605F
:100D600070470000005C00408F8F0000C0800000D2
:100D700003498A69CB131A438A6101218170704744
:100D8000405C004003498A69CB139A438A61002181
:100D900081707047405C0040CA09490610B5490E91
:100DA000282359430C18002A01D0183400E0B83425
:100DB000A07A0028607814D0002820781AD0FFF795
:100DC000AFFF2078FFF7C0FF207802F00DF9207800
:100DD000002101F089FD2078002101F04DFD002067
:100DE00010BD0028207802D0FFF7AEFF0EE0FFF71D
:100DF00097FFF0E7FFF794FF2078FFF7A5FF207833
:100E000002F002F92078002101F036FD207800215F
:100E100001F06AFDE3E770B5CA0906D04906490E3C
:100E2000282251430C18183403E0282251430C188F
:100E3000B834607800250028207806D0FFF784FFBA
:100E40002078302101F050FD06E0FFF769FF032113
:100E50002078090301F010FDA570002070BD70B569
:100E60000E064906490E0D46282461430C18002140
:100E7000002E03DA01206076183401E0B834617086
:100E8000E260E3702800207002D16162E1612162BA
:100E900021616161A161A170002B06D0012B30D0CE
:100EA000022B05D0032B06D128E00121490200E0E6
:100EB000002101F031FDA07A03252D03002823D065
:100EC000207801F09BFC2289E188207801F030FC39
:100ED00060780028207831D0FFF722FF2078FFF7D4
:100EE00033FF207802F080F82078002101F0FCFC2C
:100EF0002078002101F0C0FC002070BD03214902D0
:100F0000D7E701218902D4E76078A18800282078FA
:100F100007D001F0CBFC2078FFF716FF20782021C6
:100F20001AE001F07BFCA08981B2207801F086FCF8
:100F30002078FFF7F5FE20782946DBE7FFF7F0FE83
:100F40002078FFF701FF207802F05EF8207829462C
:100F500001F092FC2078002101F0C6FCCCE738B506
:100F60004906490E2824614300250C18C834009511
:100F70002CC41C3CE16818468B4203D9401A0091EE
:100F8000606101E000936561A07A002800980BD0B1
:100F900082B26178207801F0E3FB03212078090315
:100FA00001F06AFC002038BD81B2207801F046FCD7
:100FB000F3E70000F0B50B4C0B4E0C4F0022017113
:100FC000D3B2980005192868304018433843286088
:100FD000521C042AF4D38020014302484030C160EF
:100FE000F0BD0000005C00408F8F0000808000009A
:100FF00070B5CA0906D04906490E282251430A187D
:10100000183203E0282251430A18B832107801211F
:1010100009030123002807D054789370002C0FD0C7
:10102000102101F061FC0DE0074C2068074D2840BD
:10103000484010214840064908432060937001E071
:1010400001F01AFC002070BD005C0040BFBF000032
:101050008080000038B54906490E282400254C43FD
:1010600024180095217628342CC41C3CE1681846CD
:101070008B4203D9401A0091606101E000936561E1
:10108000A07A002800980BD082B26178207801F015
:1010900067FB207800F06EFA40060CD521890BE042
:1010A00082B2A188206902F039FD009881B22078CF
:1010B00001F00CFC09E0E188009882B2206902F09E
:1010C0002DFD6178207800F0BFF92078302101F003
:1010D0000BFC002038BD000010B5012282700021F9
:1010E0000171C2608160104601F01CFB002001F01C
:1010F00019FB002001F01EFC002001F00BFBBF20BB
:1011000002490002086001F00DFB10BD80010020C3
:1011100030B50C064906490E282569430818002CED
:1011200001DA183000E0B83099B2002A06D0012266
:101130008272C180190C0181002030BD00228272B0
:101140008180F9E7044901220A6000234B600323F0
:101150000B60827070470000405C00401CB50121AC
:10116000880400F05DFE0121684601710021C17113
:1011700003214171202000906946024800F07EF969
:101180001CBD00000004004810B5042000F05AF80F
:1011900000280CD006480078002805D10120054918
:1011A0000870002004490870042000F045F810BDC4
:1011B0000C0100201B0000201C00002010B50120A5
:1011C000400300F03FF8002803D00120400300F066
:1011D00033F810BD00B585B00121880400F020FE71
:1011E0000121084600F04CFE0021684601720121F1
:1011F000C1720420019001A90E4800F03FF90221BC
:10120000012001F059FA042003900021684601747E
:101210000C2141740121817403A800F021F80621FA
:1012200068460170022141700121817000F05AFD71
:1012300005B000BD00040048014948617047000046
:101240000004014001460020044A52690A40002A75
:1012500001D0012000E000207047000000040140A0
:10126000002120498279002A35D00A461268036895
:101270009A430B461A600A46526803689A430B4623
:101280005A60027951180A6803681A430A60154ABD
:10129000926803689A43134B9A601A46D2680368AF
:1012A0009A43104BDA604279102A0CD11A469268A0
:1012B00003681A430B4B9A601A46D26803681A43B4
:1012C000084BDA600DE00749427951180A68036853
:1012D0001A430A6005E0027951180A6803689A43C4
:1012E0000A607047000401400149C860704700006F
:1012F0000020024030B5044604250B20000400F015
:101300008FF80546042D17D10C48006902210843C7
:101310000A490861084644610069402108430749B9
:1013200008610B20000400F07BF8054603480069C3
:101330000221884301490861284630BD002002404F
:1013400004200D49C968C907C90F002901D001202F
:1013500010E00949C96810221140002901D002207B
:1013600008E00549C96804221140002901D0032082
:1013700000E004207047000000200240034800699C
:1013800080210843014908617047000000200240A5
:1013900078B506460C460425002000900B2000047A
:1013A00000F03EF80546042D24D1134800690121C0
:1013B00008431149086134800B20000400F030F824
:1013C0000546042D10D1B01C0090200C0099088017
:1013D0000B20000400F024F8054607480069400887
:1013E00040000549086105E00348006940084000E5
:1013F00001490861284678BD00200240054800697F
:1014000080210840002804D003480249486003486E
:10141000486070470020024023016745AB89EFCD4B
:1014200010B503460424FFF78BFF044603E0FFF7E3
:1014300087FF04465B1E012C01D1002BF7D1002B46
:1014400000D10524204610BD084B8000084AC01872
:10145000002907D0012904D101681140054A114330
:101460000160704701681140034AF8E7005C0040E2
:101470008F8F000080C00000C0800000F0B50A46D9
:1014800000210023002400BF3DE001258D402B46B4
:1014900015681D402C469C4234D11579012D02D08F
:1014A0001579022D16D185684F000326BE40B5433D
:1014B000856055794E00B5408668354385608588DE
:1014C00001268E40B5438580858896798E40B6B2D8
:1014D0003543858005684F000326BE40B54305604F
:1014E00015794E00B540066835430560C5684F0064
:1014F0000326BE40B543C560D5794E00B540C668E9
:101500003543C560491C1029BFD3F0BDF0B5002399
:1015100000244D07EE0E1546B5402B46CD10AE000B
:1015200005462035AD594E07F70E0F26BE40B54390
:10153000CE10B60007462037BD51CD10AE003D4657
:10154000AD591D432C46CD10AD003E467451F0BD43
:1015500002460020138A0B40002B01D0012000E03E
:10156000002070470185704781617047828A4A4038
:1015700082827047024980004018006880B270473C
:10158000005C004005490969C00089B20818044997
:10159000401840888005800D70470000405C004086
:1015A0000060004005490969C00089B20818044973
:1015B0004018C0888005800D70470000405C0040E6
:1015C0000060004005490969C00089B20818044953
:1015D0004018C0888005800D70470000405C0040C6
:1015E0000060004005490969C00089B20818044933
:1015F000401840888005800D70470000405C004026
:101600000060004010B50848046BC16A406B0818C0
:1016100009D00822054900F0BDFA0449042210311E
:10162000204600F0B7FA10BD80F7FF1F36020020F9
:10163000F1B53E4C0025E561207801280BD0012151
:1016400020698902884201D128462561E268064660
:10165000904201D12570F8BD40273548964211D9F6
:10166000891B61612B46A16101E0491C5B1C9A4208
:1016700001D94029F9D3E361A161402931D96761DA
:10168000A7612EE0911B6161402900D96761626901
:10169000A261402A25D94027B1B2002D13D04118AC
:1016A0002448FEF795FE23486169E2694018204905
:1016B000FEF78EFE6069402802D92069403000E0C4
:1016C000E069206106E0411840221A48FEF780FEDA
:1016D00040362661606940386061A0694038A06189
:1016E0001DE0A269E369B1B297B2002B0DD0411899
:1016F00010486269FEF76CFE0E486169E2694018A5
:101700000B49FEF765FEE06906E041180948FEF75F
:101710005FFEA169206940186561A56120613B46B3
:10172000044A81210098FFF795FCF8BD8401002050
:10173000DC190020DC1D002000F00CFB38B518215E
:101740003F4800F009F93F4908400446022C04D004
:10175000042C50D0402C6CD163E03B480078012829
:1017600004D002282FD0032843D141E03748006835
:10177000374A127880182038C17F314800F0FBF8D2
:1017800033480078401EC0B231490870002819D192
:10179000022008702C4908702E480078012811D1C9
:1017A0008102274800F0CAF80920800200902A48E8
:1017B000007801221043014600232848027820487F
:1017C00000F0DCF815E02348007800280FD1244809
:1017D0000068017822480068401C214B18601848B6
:1017E00000F0C9F81D480078401E1C49087000E050
:1017F00000BF00BF22E01448007802280FD115482E
:10180000007801280AD10E4800F0B1F8144909689F
:10181000087013480068401C1149086000BF00BFF1
:101820000CE00320084908700121054800F02AF85F
:1018300004E02146024800F017F800BF00BF38BDA1
:1018400000540040FE0F00008C000020900000209B
:10185000990000208D0000208E00002098000020BC
:1018600094000020C1617047C1617047002904D015
:10187000026801231A43026003E002685208520022
:1018800002607047002905D0426801239B031A4378
:10189000426004E0426801239B039A434260704720
:1018A00010B502460023002093691C460C402346D5
:1018B000002B01D0012000E0002010BD002A03D041
:1018C00003680B43036002E003688B4303607047C7
:1018D00010B50A46002103685B085B0003600168DD
:1018E000144B194094682402536823431943016040
:1018F0000F2424061368A3430361036801242343D0
:10190000036000218160C160146993692343194613
:10191000816083680124E40323438360D168036802
:101920000B4303604168044B1940536919434160FC
:1019300010BD0000FFE0CF00FF7FFF07002905D1A9
:10194000426801239B029A43426004E042680123FB
:101950009B021A434260704708B50246002000907F
:1019600000920098401800900098006808BD014659
:10197000486AC0B27047816270470000F0B50C46FB
:1019800000214168074D2940A505AD0D1604FF272C
:101990003F043E4035431D43059E35432943416086
:1019A000F0BD0000009800FC70B590B0002402F07B
:1019B0002DFE00F019FC02F0C9FDFFF70BFC02F050
:1019C00075FDFFF7CBFB0A2201216A4803F03DFBBE
:1019D0000121684801F01CFA7D22D20001216648ED
:1019E00003F033FB0121644801F012FAE1214902BE
:1019F000624803F08BFB012302AA1946952002F0EE
:101A0000ACFB6846007A01287ED102F085F90320FC
:101A10005B49087080215B48FFF7A4FD00BF584870
:101A20000078002803D000F035F90128F7D000F045
:101A300031F9002801D110B070BD80215148FFF765
:101A400093FD05204E49087000BF4D4800780028DE
:101A500003D000F01FF90128F7D000F01BF900288F
:101A600000D1E8E704204649087040214548FFF7C7
:101A700079FD00BF42480078002803D000F00AF941
:101A80000128F7D000F006F9002800D1D3E7402163
:101A90003C48FFF769FD03203949087000BF38480A
:101AA0000078002803D000F0F5F80128F7D000F006
:101AB000F1F8002800D1BEE70123334A1946334824
:101AC00002F04BFB3048001F007931280CD1304820
:101AD00001682D489F30FEF727FC2D4841682A48B1
:101AE000C230FEF721FC39E000250026342103A88E
:101AF000FEF7D6FC1E2303AA01213B20C00102F001
:101B00002CFB012301AA00E030E019461F48793080
:101B100002F023FB6846027903A91B485830FEF700
:101B2000C1FC00BF00BF00210191342103A8FEF7D2
:101B3000B7FC1E2303AA012114485B3002F00DFB01
:101B4000012301AA194611487A3002F006FB6846C3
:101B5000027903A90C487B30FEF7A4FC0121002088
:101B600002F062FD0848001F02F054FE00F046FD3E
:101B700000BF60E7004401400020004000440040F6
:101B800078000020000400484C170020431D00008E
:101B90006C01002070B500231D460EE0040F0A2CD6
:101BA00002D25E00303401E05E0037348C555C00B8
:101BB000641800015B1C6570DBB29342EED370BD0C
:101BC0001CB50121480400F02BF901216846017180
:101BD00000218171C171032141711020009069467B
:101BE0000920C006FFF74AFC1CBD1CB501214804B2
:101BF00000F016F901216846017100218171C1715F
:101C0000032141712020009069460920C006FFF79A
:101C100035FC1CBD1CB50121480400F001F901216F
:101C20006846017100218171C17103214171402019
:101C3000009069460920C006FFF720FC1CBD1CB5BA
:101C40000121480400F0ECF80121684601710021EF
:101C50008171C17103214171802000906946092082
:101C6000C006FFF70BFC1CBD1CB50121880400F069
:101C7000D7F801216846017100218171C1710321EA
:101C800041710120009069460148FFF7F7FB1CBD38
:101C9000000400481CB50121C80400F0C1F800216F
:101CA0006846017181710121C171032141710021D7
:101CB00041710120400300906846C17169460648A1
:101CC000FFF7DCFB012149030348FFF741FC03490F
:101CD0000870084600781CBD000800486F0000200E
:101CE0007047000000218278002A27D0184A032379
:101CF0001B02D21803789B109B00D15802789207E0
:101D0000D30EFF229A400B4693431946427892071E
:101D1000120E03789B07DB0E9A4011430C4A0323F3
:101D20001B02D21803789B109B00D1500278D30677
:101D3000DB0E01229A40064B1A6007E00278D306B8
:101D4000DB0E01229A40024B80331A60704700007C
:101D500000E100E0BFF34F8F03480449C860BFF3C0
:101D60004F8F00BFFEE700000400FA0500ED00E021
:101D7000064B521C5208C918002A05D00B88038054
:101D8000801C891C521EF9D1704700000060004081
:101D9000002807D007490968FF2201321143054A8C
:101DA000116006E003490968FF2201329143014AAC
:101DB000116070470070004010B502460020154BBE
:101DC000186880088000034613431846114B1860BA
:101DD000114B1B69042423430F4C2361012907D1B4
:101DE00030BF23461B690424A3430B4C23610FE03F
:101DF000022907D120BF084B1B690424A343064CCA
:101E0000236105E0044B1B6902242343024C236138
:101E100010BD00000070004000ED00E070470000C1
:101E2000002905D0054A52690243044B5A6104E077
:101E3000024A52698243014B5A61704700100240C6
:101E4000002905D0054AD2690243044BDA6104E057
:101E5000024AD2698243014BDA61704700100240A6
:101E6000002905D0054A12690243044B1A6104E0B7
:101E7000024A12698243014B1A6170470010024006
:101E8000002905D0054A92690243044B9A6104E097
:101E9000024A92698243014B9A61704700100240E6
:101EA000002905D0054AD2680243044BDA6004E0F9
:101EB000024AD2688243014BDA6070470010024048
:101EC000FEB50446002500260020029001900090F7
:101ED0000027864840680C2108400546002D06D0A2
:101EE000042D07D0082D08D00C2D2CD128E08048D7
:101EF00020602BE07E48206028E07C4840680F216D
:101F0000890408400646794840680321C90308400F
:101F10000290B00C861C0298002803D17548374601
:101F200047430BE07148C06A0007000F401C019056
:101F30006F480199FEF7FDFA70430746276005E0F8
:101F40006D48206002E06A48206000BF00BF67481B
:101F50004068F021084005462D096848405D009022
:101F600020680099C8406060604840680721090205
:101F7000084005462D0A6148405D00906168009860
:101F8000C140A1605948006BFF21013108408842DF
:101F900002D05B48E0600DE05448406801218903AD
:101FA0000840884203D0A0684008E06002E0A068D2
:101FB0008008E0604D48006B40210840402802D076
:101FC0005048206102E00120C00320614748006BB7
:101FD00010210840102802D04548606101E02068C7
:101FE00060614248006B8007800F002802D1A06822
:101FF000A06119E03D48006B8007800F012802D1E5
:102000002068A06110E03948006B8007800F02282B
:1020100002D18003A06107E03448006B8007800F85
:10202000032801D13248A0613048006B0321090424
:102030000840002802D1A068E06120E02B48006B36
:1020400003210904084001210904884202D12068C3
:10205000E06114E02548006B0321090408400121D8
:102060004904884202D18010E06108E01F48006BFB
:10207000032109040840884201D11D48E0611B4842
:10208000006B032189040840002802D1A068206267
:1020900020E01648006B03218904084001218904CF
:1020A000884202D12068206214E01048006B0321AE
:1020B000890408400121C904884202D1001120622C
:1020C00008E00A48006B032189040840884201D1D6
:1020D000074820620548006B80210840802802D014
:1020E0000548606200E06762FEBD0000001002402B
:1020F00000127A0000093D00006CDC02790000202B
:10210000809FD5001280000010B5024600210023F8
:1021100000205111002902D10C4C23680BE0012949
:1021200002D10A4C236A06E0022902D1074C636AF5
:1021300001E0064C636BD106C90E01248C401C40A3
:10214000002C01D0012000E0002010BD0010024052
:102150000549096B10229143034A11631146096B2B
:102160000143116370470000001002400849096AEA
:1021700049084900064A11621146096A042291433E
:10218000034A11621146096A014311627047000057
:1021900000100240002807D00749096A0122D20333
:1021A0001143054A116206E00349096A0122D2037C
:1021B0009143014A11627047001002400249096AC6
:1021C0000143014A11627047001002400549096B42
:1021D00080229143034A11631146096B0143116345
:1021E00070470000001002401CB501218804FFF771
:1021F00017FE01216846017100218171C17103211F
:10220000417101208002009069460248FFF736F9CB
:102210001CBD00000004004838B5024600240094AC
:1022200000230020CA24174D6C6253246C620029DD
:1022300005D02C46A4681443AC6001201DE0114C6D
:10224000A46894430F4DAC6000BF0E4CE468150ABF
:102250002C402346009C641C00940125AD03009C87
:10226000AC4201D0002BF0D0064CE468150A2C409B
:10227000002C01D1002000E00120FF24014D6C6200
:1022800038BD000000280040014600BFF020084093
:1022900000110A23584302460807000F8018C0B2F5
:1022A0007047000010B50021010980220A4392B254
:1022B000D243044BDB68802423401A43014BDA608D
:1022C00010BD0000002800401FB501210807FFF7DE
:1022D000B7FD0120FFF75CFD0120FFF747FF00BFBE
:1022E0002120FFF711FF0028FAD0FF200130FFF76F
:1022F00065FF0120FFF74EFF00F04AF97F200290B2
:10230000FF2003900020019001A800F015F90221A0
:10231000684601700021417001218170FFF7E2FCE5
:102320001FBD000008B50022009200200021124AC3
:10233000D26840231A40002A1BD1421E0E4BDA609D
:1023400000BF0D4AD26840231A401146009A521C21
:1023500000921B02009A9A4201D00029F1D0064A4D
:10236000D26840231A40002A01D0012002E0002058
:1023700000E0012008BD0000002800400348C068BC
:10238000802188430149C860704700000028004050
:1023900070B506460C4600251348406813490840AE
:1023A0000546FF2000042840000CE0701F200002BA
:1023B0002840000A6070A806800EA0700720400325
:1023C0002840400B2070002E0DD1E078FFF75CFF15
:1023D000E0706078FFF758FF6070A078FFF754FF57
:1023E000A0702078207070BD002800403FFFFF00E3
:1023F00070B501460020002200230F4C24680425FC
:102400002C4022460C4C403CA4680C408E0C0D46DF
:10241000F540ED0B15402C432346074C403CE46847
:102420000D092C402246002B04D094B2002C01D080
:10243000012000E0002070BD4028004070B5064635
:102440000C460025124800681249084005463F2006
:1024500000042840000C20707F2000022840000A61
:1024600060706806400EA070012080052840000CB6
:10247000E070002E0BD12078FFF706FF2070607807
:10248000FFF702FF6070A078FFF7FEFEA07070BD3E
:10249000002800407F7F7F0010B501200003FFF778
:1024A000A7FF002813D000210120000300F012F83C
:1024B0000021FF200130FFF7AFFE01200449087022
:1024C0000003FFF7EFFE01204004FEF7B5FE10BD4C
:1024D000AD00002010B5CA22164B5A6253225A6230
:1024E000002911D01A46926804240346A3431A43D4
:1024F000104B9A600F4A40321268042303401A437B
:102500000C4B40331A6010E00A4A926804240346D8
:10251000A3439A43074B9A60064A40321268042349
:1025200003409A43034B40331A60FF22014B5A6227
:1025300010BD00000028004030B504460025CA2028
:102540001249486253204862FFF7ECFE002800D190
:1025500017E00E488068402188430C49886008468F
:1025600080682168084309498860A06808610846B6
:102570000069A1880904084304490861FFF7FEFEC9
:102580000125FF2001494862284630BD002800404F
:1025900008B50022009200200021174A92682023EB
:1025A0001A40002A01D0012025E0CA22124B5A62AB
:1025B00053225A621A46D268A0239A430E4BDA601D
:1025C00000BF0D4AD26820231A401146009A521CBF
:1025D00000929B02009A9A4201D00029F1D0064A4B
:1025E000D26820231A40002A01D0012000E00020F8
:1025F000FF22014B5A6208BD0028004010B5FFF7CA
:1026000063FE02F079FC10BDF0B5224C072800D023
:10261000207022781F4D0626052104271E4813002E
:1026200001F05CFB06040D12171F280B68680028D8
:1026300001D02170F0BD00F031F82670F0BD00F03F
:102640002DF82770012022E0022060700320207006
:10265000F0BD6078401E607060780028F8D1277067
:10266000F0BD0268102392B21A43026021700A2062
:102670006070F0BD6178491E617061780029F8D101
:102680000168102289B291430160267000206860C1
:10269000F0BD000050020020405C0040044801688A
:1026A000042289B291430160BF2109020160704791
:1026B000405C00407047000030B500228B071C0FC3
:1026C0000F23A3401A460B4B8C10A4001B599343B5
:1026D000084C8D10AD00635123468C10A4001B598B
:1026E0008C07250F0446AC402343024C8D10AD00EF
:1026F000635130BD0800014001460020044A1068C3
:102700008008800002460A431046014A1060704764
:1027100000000140C0080249C00008617047000085
:10272000405C00400149086070470000405C004088
:1027300030B54C08084964000B69C0009BB21D18F5
:10274000064B5208ED182C800969520089B208180E
:10275000C018828030BD0000405C00400060004036
:10276000F0B5244BC50000290DD001290AD1186904
:1027700080B24119204809184A80196989B249195B
:102780000818C280F0BD1B4800691B4980B240197F
:10279000891C46185009411E8C465308591C3E2A74
:1027A00009D90446D70601D16446A4B2A402012780
:1027B000FF033C4304E01C46D70700D00C46A402AC
:1027C00034800C4C2469A4B264190B4DAD1D6419FE
:1027D0003E2A08D9D10601D1604680B2800201218B
:1027E000C903084303E0D00700D00B4698022080BD
:1027F000F0BD0000405C00400060004081000448E3
:1028000009180868034A1040034A104308607047DB
:10281000005C00408F8F000080810000054A49085D
:102820001269490092B2C0001018034A80188180D2
:1028300070470000405C0040006000400C4A126994
:10284000C00092B210180B4A82183E2909D94809D3
:10285000C90601D1401E80B280020121C90308438C
:1028600004E04808C90700D0401C8002108070476F
:10287000405C004006600040820009481218106861
:10288000084B1840CB0402D501231B035840890490
:1028900002D50121490348400349084310607047AD
:1028A000005C00408FBF000080800000054A49089E
:1028B0001269490092B2C0001018034A80180180C2
:1028C00070470000405C004000600040044A12690C
:1028D000C00092B21018034A80184180704700006F
:1028E000405C0040006000408200084812181068F8
:1028F000074B1840CB0601D510235840890601D557
:10290000202148400349084310607047005C0040A4
:10291000BF8F0000808000008200044812181068F9
:10292000034B18400843106070470000005C0040F3
:102930008F8900000149486070470000405C0040FA
:102940000CB5002001900090314800680121090475
:1029500008432F49086000BF2D4800680121490441
:10296000084000900198401C01900098002804D174
:102970000521090301988842EED12548006801210C
:1029800049040840002802D00120009001E0002006
:1029900000900098012839D111201E4908601C4878
:1029A00040681B49486008464068486008464068DF
:1029B0007F21C903884316494860084640681121B1
:1029C00009040843124948600846006801210906C5
:1029D00008430F49086000BF0D48006801214906FF
:1029E00008400028F8D00A4840688008800008495C
:1029F000486008464068022108430549486000BF16
:102A0000034840680C2108400828F9D10CBD00009B
:102A1000001002400020024010B586B00020059052
:102A20001F2168460172012141720021817202A8B2
:102A3000FFF758F901210807FFF702FA3B48FEF7B4
:102A400007F881213A480068FEF7A6F903213848C3
:102A50000068FEF7A1F9822135480068FEF79CF96D
:102A60003448FDF755FD804701214804FFF7D8F9A8
:102A70002F480068FEF786F92D480068FEF762FBD4
:102A80002B48006800F0EAFC0020FFF79FFB0021C4
:102A90000120C005FFF7D4F9FF225E32002124484F
:102AA0000068FDF7D6FC07216846017200214172DB
:102AB0000121817202A8FFF715F90D210220FFF70D
:102AC000FBFD0120400300900021684601710821B0
:102AD000417101218171FEF7C3FB012127204004D0
:102AE000FFF79EF903216846017441740021C17407
:102AF0001148039003A90920C006FEF7BFFC03A9F3
:102B00000E48FEF7BBFC03A90D48FEF7B7FC0021F9
:102B100023204004FFF784F901200A4908700121AD
:102B20000846FFF749F906B010BD00000024014037
:102B300008010020E8010020FFFF00000004004819
:102B4000001400480C01002005480168082289B2E1
:102B5000114301600168042289B21143016070478A
:102B6000405C00407047000010B51B480068012120
:102B70000843194908600846406818490840164942
:102B8000486008460068164908401349086008462E
:102B900000680121890488430F490860084640689D
:102BA0003F21090488430C4948600846C06A00096F
:102BB0000001C8620846006BFF2154318843064972
:102BC00008630846406B4008400048630020886066
:102BD000FFF7B6FE10BD0000001002400CB8FF0861
:102BE000FFFFF6FE10B50121094800F0A1F9002809
:102BF0000DD008480088401C064908800648007827
:102C0000401E054908700121014800F0FDF810BD83
:102C100000200040500000207800002010B5002463
:102C20000121174800F084F9002823D015480078C6
:102C3000401C14490870084600780A2804DB00206C
:102C4000087001201049087010480078401C0F4996
:102C500008700878411C0D4A1170282805DB0020F7
:102C60001146087001200A4908700A480088401C73
:102C7000084908800121024800F0C6F810BD000094
:102C800000440140EF00002070000020F40000200C
:102C9000F50000205200002010B50121044800F08A
:102CA00047F9002803D00121014800F0ADF810BD1C
:102CB0000048014010B50221044800F039F900280D
:102CC00003D00221014800F09FF810BD002C014004
:102CD000F7B584B00C461546454946480068FDF7EF
:102CE00028FC0746FDF7CAFD064631467F20C00591
:102CF000FDF7D0FC06462846FDF7C0FD31460290A0
:102D0000FDF7C8FC0746FDF775FD0390002C1BD1AD
:102D1000374938480068FDF70CFC0746FDF7AEFD63
:102D200006463549304602F045FD029031480068BC
:102D3000FDF7A4FD01900299FDF7ACFC0746FDF7F5
:102D400059FD2E4908603BE0012C1BD12849294838
:102D50000068FDF7EEFB0746FDF790FD06462849A3
:102D6000304602F027FD029022480068FDF786FDFC
:102D700001900299FDF78EFC0746FDF73BFD1F49C8
:102D800008601DE0022C1BD119491A480068FDF7A4
:102D9000D0FB0746FDF772FD06467F21C905304688
:102DA00002F008FD029013480068FDF767FD0190EE
:102DB0000299FDF76FFC0746FDF71CFD0F490860FF
:102DC000049800F033F80398401E0E4948600B4801
:102DD0000088401E0880002008814880049800F088
:102DE000C5F801221146049800F0B5F807B0F0BD0F
:102DF00040420F000000002000247449BC00002065
:102E000000007A44040F0020CA4302827047000089
:102E1000002904D0028801231A43028003E00288BB
:102E2000014B1A4002807047FEFF000010B50446B7
:102E30003748844208D10121C014FFF731F800213E
:102E4000E014FFF72DF862E001208007844208D1EA
:102E500001210846FFF704F800210120FFF700F8E0
:102E600055E02C48844208D101210220FEF7F8FFEA
:102E700000210220FEF7F4FF49E02748844208D1F0
:102E800001211020FEF7ECFF00211020FEF7E8FFE3
:102E90003DE02248844208D101212020FEF7E0FFD6
:102EA00000212020FEF7DCFF31E01D48844208D1DC
:102EB00001218015FEF7D4FF0021A015FEF7D0FFF9
:102EC00025E01848844209D101210804FEF7E8FFF3
:102ED000002101200004FEF7E3FF18E012488442BD
:102EE00009D101214804FEF7DBFF00210120400445
:102EF000FEF7D6FF0BE00D48844208D1012188047B
:102F0000FEF7CEFF002101208004FEF7C9FF10BDAF
:102F1000002C01400004004000100040001400405C
:102F200000200040004001400044014000480140B2
:102F300030B50246002000230024158A0D402B46A0
:102F400095890D402C46002B03D0002C01D0012088
:102F500000E0002030BD002A03D083890B43838129
:102F600002E083898B43838170470000002202883E
:102F7000154B984206D001239B07984202D0134B71
:102F8000984203D1124B1A404B881A43114B984276
:102F900003D0114B1A400B891A4302804B68C3625D
:102FA0000B880385084B984208D00C4B984205D0FB
:102FB0000B4B984202D00B4B984201D18B7A03867F
:102FC0000123838270470000002C01400004004070
:102FD0008FFF000000100040FFFC00000040014097
:102FE0000044014000480140810004480918086875
:102FF000034A1040034A104308607047005C0040D9
:103000008F8F000080C00000810004480918086804
:10301000034A1040034A104308607047005C0040B8
:103020008F8F0000C080000070B5064C064D214611
:10303000284600F068F8002803D02146284600F012
:1030400043F870BD050105000038014010B5164970
:10305000164800F058F8002824D01548C0681449D4
:10306000491D884202D11348491FC8600F4800F02B
:1030700011F90F49C96808700D48C06800785E28CA
:1030800002D101200C4908700948C068401C084959
:10309000C86000200949088009490880024903489E
:1030A00000F012F810BD00000501050000440040CA
:1030B000381700203813002028000020500000207E
:1030C000520000200162704710B5002300220B0C53
:1030D00001249C402246026210BD002904D00268EF
:1030E00001231A43026003E00268520852000260A2
:1030F000704702460020D3690B40002B01D001200D
:1031000000E00020704770B502460B460024002105
:10311000002500201E04350ED9B201268E4031460E
:10312000012D02D11668314006E0022D02D1566809
:10313000314001E0966831401C0C0126A64034461F
:10314000D6693440002903D0002C01D0012000E0D2
:10315000002070BDF8B50346002400260096002527
:10316000002018460E04340ECEB200960127009EB1
:10317000B7403D46022C01D1001D02E0032C00D1D6
:103180000830002A03D006682E43066002E0066875
:10319000AE430660F8BD0000F0B58BB004460E46A5
:1031A000002700200A900025206840084000206089
:1031B000656803210903284688430546B06805432E
:1031C000656025682E480540F168706808433169DC
:1031D000084305432560A568032109022846884362
:1031E000054670690543012000030543A560684654
:1031F000FEF766FE2348844202D106980A900DE04D
:103200002148844202D107980A9007E01F4884426F
:1032100002D108980A9001E002980A9020680121E2
:10322000C903084000280CD031680A9A5000FDF705
:1032300080F9074631680A9A5000FDF77AF90D4681
:1032400009E031680A98FDF774F9074631680A9871
:10325000FDF76FF90D4630684008A84200D87F1C82
:1032600020680121C9030840002806D03807450F0F
:1032700038460749084028430746A7810BB0F0BDF0
:10328000F3E9FFFF003801400044004000480040DF
:10329000F0FF00000146888CC005C00D7047CA05CC
:1032A000D20D0285704710B5FF225932125852686C
:1032B0009047002010BD10B5134600240A46214651
:1032C000FDF74DFE204610BD10B5134600240A46FA
:1032D0002146FDF7BFFE204610BD10B50021FDF7C9
:1032E00087FE10BD10B5034680339A655A650323E7
:1032F0004370134600240A462146FDF730FE20465F
:1033000010BD10B5002405214170234622462146F8
:10331000FDF725FE204610BD10B5826302234263EF
:103320004370134600240A462146FDF793FE2046CB
:1033300010BD10B5002404214170234622462146C9
:10334000FDF788FE204610BDF8B5C71DF9370446C5
:10335000002907D0B86D4269002A46D0A07803281A
:1033600041D042E0254660781835022802D0042872
:103370002ED03AE0E968E8690091884207D9401AFE
:10338000E86182B220462969FFF79EFF2DE0286A96
:103390000646FDF7CEF800290DD1009886420AD3E3
:1033A000686A864207D2002211462046FFF78CFF4A
:1033B0000020686219E0B86DC168002904D0A078C7
:1033C000032801D1204688472046FFF79AFF0CE0EA
:1033D000074D2868002808D0C1B22046FDF7EAFD55
:1033E0000020286001E0204690470020F8BD000042
:1033F0005C02002010B5C21DF9320446002907D036
:10340000906D8269002A27D0A078032822D023E07B
:1034100020466178B83003291ED1C369C1688B4248
:103420000BD9591AC161C268914200D311468AB2C0
:1034300001692046FFF73FFF0EE0906D016900290A
:1034400004D0A078032801D1204688472046FFF702
:1034500070FF01E020469047002010BD002070471B
:10346000F8B5044648880E46010AE51DF9350B00FB
:1034700000F034FC044B0310184B296E207B0A68C3
:10348000694690470146F08840282DD108206A46B9
:10349000108032E0A96D207B0A6A69469047014698
:1034A000686621E0C0B2030000F018FC0604080CB6
:1034B0001014182F296E207B4A6812E0296E207B99
:1034C0008A680EE0296E207BCA680AE0296E207B9C
:1034D0000A6906E0296E207B4A6902E0296E207B9A
:1034E0008A696946904701466846008800280BD0E3
:1034F000F288002A08D0824201D9684602886846CC
:1035000002802046FFF708FFF8BD20460021FDF7A6
:103510006FFDF8BD70B5002300281CD004460025BF
:1035200002E06D1CEDB2641C2678002EF9D16C000F
:10353000A41C1480CC5403225B1CCA5400245B1CC2
:1035400006E0CA545B1CDAB28C54521CD3B2401C45
:103550000278002AF5D170BDF8B51E4615460F4613
:10356000044600F04BFA2946E51DF9352A46583243
:10357000C2C2FEF747F82046FDF7AEFDE86D0068D1
:103580008047204600F030FA2046FDF7F1FBF8BDF9
:10359000027C0A70427C4A70C37C827C1B02D21877
:1035A0004A80437D027D1B02D2188A80C37D827DC2
:1035B0001B02D21892B2CA800121C26341707047C7
:1035C00010B50022044640231146FDF7A1FD8023DB
:1035D000002219462046FDF79BFD00234022194694
:1035E0002046FDF73CFC0023402280212046FDF7C9
:1035F00036FC0120A070207BFF340134E16D496866
:103600008847002010BD10B50446FF300130C06D62
:1036100000698047E078A070002010BD10B5FF2140
:1036200059310958C969002900D08847002010BDC8
:1036300010B5C21DF9321446926D12689047E06DC4
:1036400080688047002010BD70B58978164D04460B
:103650002970012904D920460021FDF7C9FC70BD5D
:10366000A078022813D00328F5D1002915D020789E
:10367000884208D001462046FFF715FE29782170C0
:103680002046FFF7D5FF2046FFF753FE70BD002907
:10369000F9D021700320A070F2E70220A070217001
:1036A0002046FFF700FEEEE7580200201CB5044656
:1036B0006946FFF76DFF68460178C806C00E0AD05C
:1036C00001280DD0022810D0C909C9012046FDF7F4
:1036D0008FFC00201CBD6946204600F00BF8F8E77F
:1036E0006946204600F0E5F8F3E76946204600F019
:1036F0007BF8EEE7FEB5002200924F781646C21D19
:1037000001240225F9323B0000F0E8FA0A36564758
:103710004B47090647272447FFF7A2FE5FE006460E
:103720008888002814D1C888002811D188784706D5
:10373000B0787F0E03280BD02A4837714760304697
:10374000FFF7F7FD002F01D0B57048E0B47046E0F8
:10375000304622E0FFF778FF41E00196C988012951
:103760001BD18178022902D0032916D101E0012260
:103770000FE0012201460DE001968178022901D077
:1037800003290AD101948168002901D00321019104
:10379000022201A9FFF7C0FD21E00021FDF728FC6E
:1037A0001DE005464888012819D1AC60906D8268FB
:1037B00028469047284610E004468078022803D027
:1037C000032801D02046E8E74888012807D1A660F1
:1037D000906D8268204690472046FFF7AAFD00982A
:1037E000FEBD000058020020F8B5044600200D463A
:1037F0000746009068780979002835D0E61DF9362B
:10380000012819D0032852D1A07802283BD00328E0
:103810000DD101E020460CE0688800281BD100296A
:1038200019D0802917D02046FDF7E2FB13E020468F
:103830000021FDF7DDFB3AE0A078022823D0032821
:10384000F5D16888002806D1002904D0802902D04B
:103850002046FDF7E0FAB06D294682682046904781
:103860002046FFF766FD22E0A07802280BD003284F
:10387000DDD1CA090120002A0AD04906490E2822B2
:10388000514309190AE0002911D08029C2D10EE064
:103890000A0607D4282251430919A031897E00293C
:1038A00000D00090022269462046FFF735FD3846D9
:1038B000F8BD70B50446807800250E46032810D167
:1038C000307901280DD8FF205930005982682046F0
:1038D0009047F1880546294307D12046FFF729FD87
:1038E00003E020460021FDF783FB284670BD10B59C
:1038F0008178C17004218170FF300130C06DC068D3
:103900008047002010BD000010B50A46024903A000
:10391000FFF700FE004810BD341E00205643502023
:10392000436F6E66696700007047000012200880D0
:1039300000487047AB5800087047704770477047A1
:1039400010B50A46024903A0FFF7E4FD004810BD88
:10395000341E002056435020496E746572666163C0
:10396000650000000420088000487047A758000840
:1039700010B50A46024903A0FFF7CCFD004810BD70
:10398000341E002053544D6963726F656C65637417
:10399000726F6E696373000010B50A46024903A096
:1039A000FFF7B8FD004810BD341E002053544D33BE
:1039B00032205669727475616C20436F6D506F725E
:1039C0007420696E204653204D6F6465000000002E
:1039D0001A200880004870473402002043200880E5
:1039E000004870476458000808B51F2168460170F8
:1039F000012141708170FEF775F908BD1CB50121E8
:103A0000C805FEF71DFA8020FEF7E0FB01214804FF
:103A1000FEF706FA0320C0020090032069464871B1
:103A20000220087100208871C8710920C006FDF7C6
:103A300025FD1CBD10B500F001F810BDF8B5002142
:103A4000684601802B4D6968018000882A4C2168F6
:103A50000840C00B01D0FDF721F868460088218896
:103A6000264E0840400509D5254868603068016940
:103A70002448884700212348FDF79CFA68460188BE
:103A800020680140890401D51F4969606946098899
:103A90000140C80408D51D4868603068816919482C
:103AA00088470020FEF7B0FD68460088218808405E
:103AB000000507D516486860306841691148884795
:103AC000FFF742F86846008821880840800505D540
:103AD000104868603068C1680A48884768460088AE
:103AE00021880840C00504D50B4868600720FEF710
:103AF0008BFDF8BD405C00408001002014020020D6
:103B0000FFFB000034180020FFDF0000FFEF000083
:103B1000FFF70000FFFD0000FFFE0000084B521CF5
:103B200010B55208C918002A08D0437804781B023F
:103B300023430B80801C891C521EF6D110BD00004F
:103B40000060004030B5032464020C2300222049A9
:103B5000002808D01F480579002D0CD0012D0CD06D
:103B6000022D22D10CE0E120400205C10A604C6028
:103B70008B60CA602AE08A6005E003252D0301E01E
:103B800001256D038D604579002D04D0012D04D0F1
:103B9000022D0AD103E0CA6002E00124A402CC6035
:103BA0008479072C0DD0082C04D00020FFF7CAFF21
:103BB000022030BDCC68002C03D0012424034C60CB
:103BC00000E04A6000680B614A610860002030BD77
:103BD0001C1E0020DC01002070B50C46042829DDE5
:103BE000154D202802D0212824D112E00846FCF7E8
:103BF0008FFCE1780002000A09060843286020795A
:103C0000287160796871A079A8710120FFF79AFF87
:103C100010E0287820702888000A60702868000C5E
:103C2000A0702868000EE0702879207168796071B2
:103C3000A8798871002070BDDC01002030B50246F3
:103C40000B4600211AE01148104CC068641DA042C8
:103C500002D10F48641FE0600C4C505CE468207097
:103C60000A48C06800785E2802D10A4C0120207002
:103C70000648064CC068401CE060491C9942E2D3EB
:103C8000054C00202070054C207030BD38170020F6
:103C9000381300202800002050000020520000208F
:103CA000F0B500230127094ABF02094D0AE0146854
:103CB000BC4201D10024146006782E55641C401CBF
:103CC0005B1C14608B42F2D30020F0BD90010020F9
:103CD000DC190020002070470020704730B4744683
:103CE000641E2578641CAB4200D21D46635D5B00F8
:103CF000E31830BC184730B502460020002307E027
:103D00001478521C303C0A25454360195C1CE3B210
:103D10008B42F5DB30BD00001CB501218804FEF7A5
:103D20007FF8012168460171C17100214171C020F5
:103D3000009069460548FDF7A1FB40210348FDF7C7
:103D400013FC80210148FDF70FFC1CBD0004004856
:103D5000F0B5002400250027002600BF77E000F022
:103D600069FB0746FCB23A2C01D1012000E000209B
:103D7000012803D1384908700020F0BDE0B25E2868
:103D800001D1012000E00020012803D1334908704F
:103D90000020F2E7E0B2232801D1012000E000205A
:103DA000012805D12E4908702C4908700020E4E74D
:103DB0002C480088401C2B4908802B4880682A49E1
:103DC000C968884208D12848806826490988401A6D
:103DD000254988602548D0E7234880682249491D45
:103DE000884202D12248491F8860002D15D1412CFC
:103DF00005DB5A2C03DC2046373886B20AE0612CFA
:103E000005DB7A2C03DC2046573886B202E02046D8
:103E1000303886B23005060C17E0012D15D1412C43
:103E200005DB5A2C03DC20463738C4B20AE0612C8B
:103E300005DB7A2C03DC20465738C4B202E020466A
:103E40003038C4B2304620430646681CC5B2022D45
:103E500085DB304691E700002C0000202D0000207B
:103E6000290000204000002038170020FFFF00003C
:103E700038130020F8B50020009000277949088009
:103E8000E6E000F0D7FA07467E2FF9D1002505E0DD
:103E900000F0D0FA74494855681CC5B2062DF7DB0E
:103EA00006217148FFF727FF7049096808606F48CD
:103EB000006800686D490968096B88421BD06B492E
:103EC00009680622086B684900F02AF968486949C0
:103ED000C8600846C06888600621634801F0E0F9C0
:103EE00006226149644801F0BFF900205D4908805D
:103EF00062490870F8BD5D48006800685B49096860
:103F0000096B88426FD100205D49087066E001F0BE
:103F1000F5FA5C480078012802D15849087061E040
:103F200059480078002859D02022FF219131574864
:103F3000FCF78FFA0024002616E05549E01C085CC7
:103F400000060A46A11C515C09040843611C515C2F
:103F5000090208431146095D0843B1004B4A50501D
:103F6000201D84B2701C86B2012040028442E4DD30
:103F70004848028845494848006801F0EDFB0020A8
:103F8000009001236A460021952000F0E6F8082100
:103F9000424801F085F908224049374801F064F9A8
:103FA00000203F49086004E03D480068401C3C494F
:103FB00008603B4800683B498842F5D300203849F7
:103FC000086004E036480068401C35490860344801
:103FD000006834498842F5D300F00AFB274800788E
:103FE000002894D000BF28480078002830D123480A
:103FF000007801282CD12348007800280DD11B48D7
:1040000000680068401C1949096808601748006882
:10401000006B401C154909680863144909680622A9
:104020000868114900F07CF811491248C160C06865
:104030001049886006210C4801F032F906220A492D
:104040000D4801F011F90020064908800B4908705D
:104050000848C06807498968884200D011E700BF56
:1040600048E70000400000206400002034000020E9
:104070003813002038170020004400402D00002095
:104080002C0000202E00002029000020C408002061
:10409000E8020020420000204C0000205C000020CC
:1040A0004800002040420F007CB502460B4600212C
:1040B0000020002400260196184D2D682D796D18DA
:1040C000E9B2164D2D682D89AEB201966D46AD88C8
:1040D000EEB26D462E70AD882E1201966D46AD88FB
:1040E000EEB26D466E702D786D18E9B26D466D7842
:1040F0006D18E9B2094D2D682D7B6D18E9B200BF2E
:1041000005E01678521C7518E9B2651CECB29C42A9
:10411000F7DBCD43E8B2451CE8B27CBD340000209B
:1041200070B506460D4614460EE00A213046FCF7EF
:1041300000FA303128192038C1770A213046FCF7BF
:10414000F8F90646601EC4B2002CEEDC70BD0021FA
:1041500000E0491C8142FCD37047FFB583B00446A0
:104160000E461F460020029000250190009002900C
:1041700030E02046E117C90E0918C902090C019167
:104180000198401C80B2019001984001001B80B250
:1041900000900298381A85B20098854200DD009D93
:1041A000002E06D12B462146AE20059A00F06EF86F
:1041B00007E0002E05D02B462146AE20059A00F0E0
:1041C0000FF80298401980B20290601984B20598E5
:1041D000401905900298B842CBDB07B0F0BD000053
:1041E0007FB582B0044615461E4600BF0121C903B3
:1041F0001E48FDF755FB0028F8D11D48047003A8A0
:104200001C4908601C4805601C490E7001201C49AF
:1042100008701C49087000211448FDF78FFB01202D
:104220004003002302220090114801780F48FDF757
:10423000A5FB02201449087000BF1248007803282B
:1042400003D0114800780028F7D100BF0121C9032D
:104250000648FDF725FB0028F8D120210348FDF78B
:1042600001FB00200749087006B070BD00540040F3
:104270008E00002090000020940000209800002074
:104280008D0000208C000020780000207FB582B0D7
:10429000054616461C4600BF0121C9032848FDF704
:1042A000FFFA0028F8D120212648FDF75BF92648BF
:1042B000057003A8254908602548066025490C704B
:1042C00000202549087001202449087000211C485D
:1042D000FDF734FB012040030090A01CC2B2002374
:1042E000194801781648FDF749FB02201C4908705F
:1042F00000BF1A480078032803D019480078002826
:10430000F7D100BF0121C9030D48FDF7C9FA002804
:10431000F8D120210A48FDF7A5FA0020019002E01B
:104320000198401C01900F4901988842F8D3202140
:104330000448FDF719F900200849087006B070BD5F
:1043400000540040000400488E000020900000202F
:1043500094000020980000208D0000208C00002098
:1043600078000020400D030037B58CB004460D46A0
:10437000142106A8FCF794F8142101A8FCF790F882
:1043800003212046FFF7B7FCC1B208A8017303213F
:10439000201DFFF7B0FCC1B208A8417303212046DD
:1043A0000830FFF7A8FCC1B208A88173032120469A
:1043B0000C30FFF7A0FCC1B208A8C173027B1CA19E
:1043C00006A8FBF71FFF06A901A8FBF7F5FF0EA93A
:1043D00001A8FBF7F1FF08A8427B15A106A8FBF78F
:1043E00011FF06A901A8FBF7E7FF0EA901A8FBF73B
:1043F000E3FF08A8827B0EA106A8FBF703FF06A92E
:1044000001A8FBF7D9FF0EA901A8FBF7D5FF08A863
:10441000C27B07A106A8FBF7F5FE06A901A8FBF7DA
:10442000CBFF01A92846FBF77FFF0FB030BD00008E
:104430002564000000211B4880681A4AD268904217
:104440001CD018488068174A521D904202D1164865
:10445000521F906013488068124AD268904203D07D
:1044600010488068007801E00020C0430146C9B2CE
:104470000C488068401C0B4A906010E00948806836
:10448000094A90420BD107488068064A521D904263
:1044900002D10548521F90600021C94300BF88B275
:1044A00070470000381700203813002000B58BB08B
:1044B00001218804FDF7B4FC01214805FDF7C0FC8B
:1044C0000020FDF745FE012208211D48FDF71EF8DA
:1044D000012209211A48FDF719F80320000209906A
:1044E000002108A84172022101720021C17201213C
:1044F000817209A91248FCF7C1FF002003900490C3
:104500000690059007900F4802900020089002A99D
:104510000D48FDF7DDF901210B48FDF7A7F9012250
:1045200046210948FDF7CAF91721684601710021A3
:1045300041710121817101A8FDF7D4FB0BB000BDD1
:1045400000040048141242B00054004000B585B089
:1045500001214804FDF764FC01218804FDF760FC9B
:104560000121C804FDF75CFC0021684601748174D8
:104570000121C1740321417483200002039003A927
:104580000920C006FCF77AFF1648039003A91648D5
:10459000FCF774FF0021684641740120400303903A
:1045A0006846C17403A91148FCF768FF0D21022079
:1045B000FEF782F801204003009000216846017157
:1045C0000821417101218171FCF74AFE07216846EB
:1045D0000172002141720121817202A8FDF782FB64
:1045E00005B000BD0AF800000004004800080048BB
:1045F00010B500F01FFD0449086880F3088800BF6B
:104600004868804710BD00000060000810B5FDF745
:10461000ECFAFDF7FFFAFDF712FBFDF725FBFDF7BE
:10462000CFFAFCF725FA10BDF0B5A7B007460C4647
:10463000022C06D11F22394609310EA80130FBF7A2
:10464000C7FE04225EA16048FBF72CFF022C0FD1AD
:1046500008A8407E5C49087101230A1D00215B48BF
:10466000FFF77BFD012301AA19465848FFF775FDA6
:10467000322155484030C171312053494871887109
:104680002C22C91D52A0FFF76FFE2C224E49173174
:1046900053A0FFF769FE2C224B49273154A0FFF7A6
:1046A00063FE2C224849373151A0FFF75DFE2E22D0
:1046B0004549483152A0FFF757FE042240A1424825
:1046C0005830FBF7EFFE022C67D13F4800793128C4
:1046D0000CD14F4801683C48A330FBF725FE4C48FD
:1046E00041683948C630FBF71FFE34E0012500263B
:1046F00003E0681CC5B2701CC6B20EA8405D23283A
:10470000F7D131480079312806D132460FA92E4819
:10471000A330FBF7C7FE13E032460FA92A485C30EE
:10472000FBF7C0FE1E230FAA00213B20C001FFF7AC
:1047300014FD1E2301AA01213B20C001FFF70DFD3E
:104740001025002603E0681CC5B2701CC6B20EA876
:10475000405D2328F7D11C480079312807D1324623
:1047600013A901311848C630FBF79CFE15E032460C
:1047700013A9013114487F30FBF794FE1E2313AABE
:104780000132002111485B30FFF7E7FC1E2301AA2C
:1047900001210E485B30FFF7E0FC0B48007931281F
:1047A00004D139210848E030417203E0392106483C
:1047B000A0308170022C00D100BF27B0F0BD0000F6
:1047C000383038300000000048170020431D00003A
:1047D0003139322E3136382E3031312E32353400E7
:1047E0003235352E3235352E3235352E30303000DB
:1047F0003139322E3136382E3031312E30303100D1
:104800003139322E3136382E3030302E30303100C2
:104810006C010020F0B58FB00446342102A8FBF7EC
:104820003FFEFEA102A8FBF7C7FD0122211D02A841
:10483000FBF768FD02A800F0BDFB2079322810D1FB
:10484000342102A8FBF72CFEF6A102A8FBF7B4FD69
:1048500001222146473102A8FBF754FD02A800F0CF
:10486000A9FB342102A8FBF71BFEF0A102A8FBF76D
:10487000A3FD0122A11D02A8FBF744FD02A800F040
:1048800099FB342102A8FBF70BFE207931280FD1C8
:10489000E9A102A8FBF790FD2046A330FBF76AFDD3
:1048A000C5B22A462146A33102A8FBF72BFD0EE034
:1048B000E4A102A8FBF780FD20465C30FBF75AFD1F
:1048C000C5B22A4621465C3102A8FBF71BFD02A8AF
:1048D00000F070FB0A2D04DA284630306946087073
:1048E00012E00A2D10DB642D0EDA0A212846FBF7B0
:1048F0002AFE3030C1B2684601700A212846FBF713
:1049000022FE303168464170342102A8FBF7C8FD11
:104910002079312804D1CEA102A8FBF74DFD03E098
:10492000CEA102A8FBF748FD0A2D05DA012269464F
:1049300002A8FBF7E7FC08E00A2D06DB642D04DA89
:104940000222694602A8FBF7DDFC02A800F032FB58
:10495000342102A8FBF7A4FD207931280AD1C2A195
:1049600002A8FBF729FD01222146E93102A8FBF745
:10497000C9FC09E0BEA102A8FBF71EFD01222146E9
:10498000A23102A8FBF7BEFC02A800F013FB342101
:1049900002A8FBF785FD207931280FD1B6A102A826
:1049A000FBF70AFD2046C630FBF7E4FCC6B23246F0
:1049B0002146C63102A8FBF7A5FC0EE0B0A102A873
:1049C000FBF7FAFC20467F30FBF7D4FCC6B2324638
:1049D00021467F3102A8FBF795FC02A800F0EAFA15
:1049E0000A2E04DA304630306946087012E00A2E8A
:1049F00010DB642E0EDA0A213046FBF7A4FD3030BE
:104A0000C1B2684601700A213046FBF79CFD303187
:104A100068464170342102A8FBF742FD2079312815
:104A200004D199A102A8FBF7C7FC03E099A102A851
:104A3000FBF7C2FC0A2E05DA0122694602A8FBF741
:104A400061FC04E00222694602A8FBF75BFC02A8B5
:104A500000F0B0FAA079302802D02079312846D170
:104A6000342102A8FBF71CFD2079312804D18CA148
:104A700002A8FBF7A1FC03E08BA102A8FBF79CFCBA
:104A80008B4902A8FBF798FC02A800F093FA3421A6
:104A900002A8FBF705FD87A102A8FBF78DFC84495E
:104AA000103102A8FBF788FC02A800F083FA342139
:104AB00002A8FBF7F5FC82A102A8FBF77DFC7C496C
:104AC000203102A8FBF778FC02A800F073FA342129
:104AD00002A8FBF7E5FC7CA102A8FBF76DFC74497A
:104AE000303102A8FBF768FC02A800F063FA342119
:104AF00002A8FBF7D5FC76A102A8FBF75DFC01221A
:104B0000611D02A8FBF7FEFB02A800F053FA342156
:104B100002A8FBF7C5FC71A102A8FBF74DFC644994
:104B2000413102A8FBF748FC02A800F043FA342107
:104B300002A8FBF7B5FC6BA102A8FBF73DFC042221
:104B4000214602A8FBF7DEFB02A800F033FA34216D
:104B500002A8FBF7A5FC66A102A8FBF72DFC042226
:104B60002146583102A8FBF7CDFB02A800F022FA3B
:104B700062A000F01FFA63A000F01CFA63A000F02E
:104B800019FA64A000F016FA002734E0342102A8D4
:104B9000FBF786FC61A102A8FBF70EFC0122611D58
:104BA00002A8FBF7AFFB012201A902A8FBF7AAFBB1
:104BB0003F49413102A8FBF7FFFB2C210191012263
:104BC00001A902A8FBF79EFB04222146583102A846
:104BD000FBF798FB2C210191012201A902A8FBF708
:104BE00091FB0422214602A8FBF78CFB02A800F0EF
:104BF000E1F9781CC7B2042FC8DB207932280AD12A
:104C000048A000F0D7F907204849087000BF47487E
:104C100000780028FBD146A08EE0000061742B577D
:104C2000413D000061742B574D3D000061742B64C1
:104C30006863703D0000000061742B417373696408
:104C40003D00000061742B53737369643D000000E4
:104C500061742B41737369646C3D000061742B5364
:104C6000737369646C3D000061742B41616D3D009C
:104C700061742B53616D3D0061742B4170773D0071
:104C800061742B5370773D0061742B4170776C3DDC
:104C90000000000061742B5370776C3D0000000031
:104CA00061742B4169703D0061742B69703D000097
:104CB0004F17002061742B6D61736B3D0000000085
:104CC00061742B67773D000061742B646E733D0047
:104CD00061742B55547970653D00000061742B554B
:104CE00049703D0061742B554C506F72743D00004B
:104CF00061742B5552506F72743D000061742B53D8
:104D0000433D300061742B53433D310061742B539C
:104D1000433D320061742B53433D330061742B5388
:104D20004F3D000061742B57433D31007800002057
:104D300061742B52623D310000F03CF90FB0F0BDC0
:104D40000020FDF7D9FCFCF7A5FF002803D1FDF7F3
:104D500063FEFCF7FFFFFCF727FE00F0B7FB00F057
:104D60008BF86CE03648007800280AD0FCF792FFF8
:104D7000002803D1FDF750FEFCF7ECFF002030497E
:104D8000087030480078002806D000202D490870AF
:104D900001212D48FCF7EAFB2C48008878282FDBFE
:104DA0002B48007801282BD100202A490870274978
:104DB00008800821284800F073FA0822264927486D
:104DC00000F052FA00202649086004E024480068F8
:104DD000401C234908602248006822498842F5D3D4
:104DE00000201F49086004E01D480068401C1C4961
:104DF00008601B4800681B498842F5D3FFF7F8FBA1
:104E000019480088C8280FDB1848007800280BD103
:104E10000621174800F044FA062215490F4800F011
:104E200023FA00201049088012480078002806D094
:104E30000020084908700F490870FFF71BF891E738
:104E400070000020F5000020000400485000002001
:104E5000300000202A0000205400002000440040C0
:104E60004800002040420F0052000020290000208E
:104E700064000020280000201CB5002101910020C2
:104E8000144908701449087001236A461946952090
:104E9000FFF763F968460078012818D10D490870BA
:104EA00006210E4800F0FCF906220C490C4800F0DF
:104EB000DBF90C480C4908600120096808630020F0
:104EC0000A4908700A4908700A49087001E0FFF7AA
:104ED0008FFB1CBD2A0000202F0000206400002052
:104EE0000044004074020020340000202B00002009
:104EF0002D0000202900002010B504490120FDF7F5
:104F00009DFA03490120FDF743FA10BDA4000020DB
:104F1000A000002070B5002400251E4E31E0FEF7F1
:104F200017FF04461C48844201D1FF2070BD1B4876
:104F30000078002816D11A480078002812D11948A4
:104F4000007800280ED1184800680079A84202DDD8
:104F50003470761C04E0144800682030047516E0B4
:104F6000681CC5B2114880681049C968884208D1D8
:104F70000E4880680E490988401A0C498860FF2055
:104F8000D4E70A4880680949C9688842C7D100BF88
:104F90000020CBE781020020FFFF00002C00002052
:104FA0002D000020290000203400002038170020A8
:104FB0004000002070B5044600252146194800F045
:104FC00062F90D21174800F031F91748FFF7BFF8D3
:104FD00021E01648406800786F2811D113484068D6
:104FE00040786B280CD111484068401C0F4948603C
:104FF00008464068884201D30D48486001250AE010
:105000000A484068401C0949486008464068884290
:1050100001D3074848600548406804490968884248
:10502000D7D170BD0044004080841E0024130020AE
:10503000240F002008B51F2168460170012141702E
:1050400000218170FCF74EFE08BD70B504460D4688
:105050001646204600F006F8324629462046FDF75F
:1050600037FE70BD38B504462348844209D101217A
:10507000C014FCF705FF0E21684601700121417044
:1050800032E01E48844209D101210220FCF7D8FEFB
:105090001021684601700021417025E018488442C3
:1050A00009D101218015FCF7CBFE13216846017060
:1050B0000121417018E01348844209D101214804BC
:1050C000FCF7DEFE152168460170012141700BE0FE
:1050D0000D48844208D101218804FCF7D1FE162135
:1050E0006846017002214170012069468870684657
:1050F000FCF7F8FD38BD0000002C01400004004022
:1051000000200040004401400048014030B589B013
:1051100004460D464048844224D101214804FCF74E
:105120007FFE01218803FCF7ABFE032040020190C3
:10513000032168464172022101720021817201211E
:10514000C17201220921C806FCF7E0F901220A21F7
:105150000920C006FCF7DAF901A90920C006FCF70E
:105160008DF926E02D48844223D101214804FCF723
:1051700057FE01214804FCF763FE0C200190032137
:105180006846417202210172002181720121C172BF
:10519000012202210920C006FCF7B8F901220321EF
:1051A0000920C006FCF7B2F901A90920C006FCF7E6
:1051B00065F90395002004900590069008900C2056
:1051C000079003A92046FDF7E7FF1348844208D162
:1051D0001B21684601700021417001218170FCF79C
:1051E00081FD0E48844208D11C21684601700021CF
:1051F000417001218170FCF775FD01212046FDF70A
:105200006CFF012206492046FDF7A4FF0548064928
:105210008860C86009B030BD0038014000440040DB
:1052200005010500381300203817002070B504462A
:105230000D4600BF80212046FDF75BFF0028F9D016
:1052400029462046FEF72BF800BF40212046FDF7F7
:1052500050FF0028F9D040212046FDF733FF802180
:105260002046FDF72FFF70BD70B506460C4615466B
:1052700004E02178641C3046FFF7D8FF28466D1EF5
:105280000028F6D170BD70B505460C4604E02178C3
:10529000641C2846FFF7CAFF20780028F7D170BDAC
:1052A00010B5FEF7FDFC10BD70B514490022CA61AF
:1052B0000B78012B20D14E69002E0CD00B468C6947
:1052C0001D69402C10D9403E403540234E61403C82
:1052D0000D618C610CE08B68012B01D00A700BE032
:1052E0008A6000231A4604E0A3B22C190C614A61BB
:1052F000034A8121FBF7AEFE002070BD840100202F
:10530000DC1D002010B504462820414308198030D8
:10531000006D81B205480269054890474023044A60
:1053200003212046FBF71BFE002010BDE4010020F6
:105330009C19002010B504468121FBF72DFD0321A7
:105340002046FBF729FD82212046FBF725FD024878
:1053500040688047002010BDE401002010B5074CD4
:10536000206AFF2807D00649626A8B6821462C31E3
:105370009847FF202062002010BD0000840100201B
:10538000E401002010B50446C02300228121FBF770
:10539000BFFEFF230133002282212046FBF7B8FE27
:1053A000FF231133002203212046FBF7B1FE022325
:1053B000402281212046FBF752FD02234022032197
:1053C0002046FBF74CFD0323082282212046FBF7F1
:1053D00046FD0548016888474023044A03212046CA
:1053E000FBF7BDFD002010BDE40100209C1900204A
:1053F00010B506498A6A521C8A62062A03D1002225
:105400008A62FCF715F9002010BD0000840100201D
:1054100070B50C46267805466020334603403A2294
:1054200027492848002B24D0202B05D02146284688
:10543000FDF753FF022070BD2349E2888B68002AE4
:1054400012D0310607D51F4960782C3198471D4985
:10545000E2882C311FE061784262016219492846D6
:105460002C31FDF73FFF26E0002260781146984777
:1054700021E06378062B04D00A2B10D00B2B1AD115
:1054800011E06088000A212805D10D49E288093120
:105490003A2A00D93A222846FDF73EFF0BE0094997
:1054A0000122091DF7E761880A06120E05D0214680
:1054B0002846FDF712FF002070BDC9B24160FAE72F
:1054C0006D58000884010020E401002010B5054B50
:1054D000054A06490648FEF73FF8074905480860AF
:1054E000486010BD60020020B801002018020020B2
:1054F00034180020240F002024130020F0B585B0BC
:10550000002003900290019000240090FEF792FF8B
:105510000446E0B23A2801D1012000E00020012831
:1055200001D005B0F0BDFEF713FC04467A48844272
:1055300000D1F6E7794909680C7100251EE0FEF7F5
:1055400007FC04467448844200D1EAE7002D03D1E9
:105550007248006884600FE0012D0DD16F4800682B
:10556000806800026D49096888606C48006880683E
:1055700000196A4909688860681CC5B2022DDEDB23
:10558000FEF7E6FB0446042C01D1E0B2009063492B
:1055900009680C7361480068007B012801D16049EB
:1055A0000870FFF7B7FC03900398FF2800D1B8E715
:1055B0000098042816D10222584801680D31594834
:1055C000FAF770FF574800780006564949780904F1
:1055D00008435549086051480068806809684018C8
:1055E000524908604D4800680068022807D14B48BE
:1055F000006880684D49096840184C4908600020DF
:105600004B4908704548006801794A48FEF74CFD4F
:105610000290424800682030017D0298814203D008
:105620000120434908707CE74348806800785E2881
:1056300007D10120414908703F488068401C3E491D
:10564000886036480068007B002862D100250FE0A2
:105650003848405D3A4909883A4A128889183A4AD6
:10566000505438480088401C36490880681CC5B230
:105670002A4800680079A842EADC32480088012103
:105680004902884245DB2022FF2191312F48FAF759
:10569000E0FE0026002716E02B49F01C085C0006FF
:1056A0000A46B11C515C09040843711C515C090293
:1056B00008431146895D0843B900244A5050301D03
:1056C00086B2781C87B2012040028642E4DD0020C9
:1056D0001F490870012252021C491448006800F05A
:1056E0003BF812480068FF30FF3002300F49086075
:1056F00014480088FF38FF380238124908800846ED
:105700000088002805DD0846028812490E48FAF78D
:1057100023FD00BF05E70000FFFF0000340000206C
:105720002900002039000020740000204C000020D7
:105730002E00002081020020381700202D000020BC
:105740007200002042000020E8020020C40800206F
:1057500030000020E8040020F7B582B006460F466E
:105760007001050CFBF74AFE3420FBF7BDFD104825
:10577000008885420CD0E8020121C906401801903A
:10578000E9020122D2068818FBF7B4FD084805801B
:10579000002406E030193968FBF7FAFD3F1D201D93
:1057A00084B204988442F5DBFBF7E8FD05B0F0BD58
:1057B0003E00002070B5420064414B005C41120E77
:1057C00039D01B0E38D0FF2A3CD0FF2B3AD04002F4
:1057D0004902400A490A060045184E43000A090AD0
:1057E000D2184843ED017F3A0104731A4019190C8D
:1057F0004318990F04D001215B0849075B1A521C1A
:10580000D80904D3401CF50301D19D0607D0FF2A17
:1058100008D2D50506D0E4072043401970BD012504
:10582000A843F4E7002A01DCE00770BD2402FF2052
:105830002043C00570BD1B0EFF2A03D0FF2B01D0F3
:10584000E00770BDFF2645003606B54206D84D007C
:10585000B54203D8D218FF2A00D0E7E7004870BD50
:105860000000C07F09024300020100C032090400A9
:1058700000010202010005240010010524010001BD
:10588000042402020524060001070582030800FF24
:1058900009040100020A000000070503024000009D
:1058A0000705810240000004030904120100020000
:1058B00000004083044057000201020301818283FB
:1058C0008485868788898B8C8D8E8F91929395960F
:1058D00097999A9C9D9FA0A2A3A5A7A8AAACAEB099
:1058E000B2B3B5B7B9BCBEC0C2C5C7C9CCCED1D49E
:1058F000D7D9DCDFE2E6E9ECF0F3F7FAFE000000CE
:1059000061742B6D61736B3D3235352C3235352C1E
:105910003235352C3000000061742B53523D302C51
:10592000313030300000000061742B53523D312C77
:10593000313030300000000061742B53523D322C66
:10594000313030300000000061742B53523D332C55
:10595000313030300000000061742B534F3D312C4A
:105960003139322C3136382C302C39392C3830380A
:10597000302C38303830000061742B554C506F7229
:10598000743D38303830000061742B5552506F72BE
:10599000743D38303830000061742B53433D300083
:1059A00061742B57413D310061742B53433D3100ED
:1059B00061742B52623D310061742B5554797065CE
:1059C0003D31000061742B53433D320061742B5311
:1059D000433D330041717561736D6172742D4534BF
:1059E0000000000061742B41737369646C3D3700E3
:1059F00061742B4170773D3132333435363738009E
:105A000061742B4170776C3D3800000031323334C3
:105A1000353637383900000061742B4169703D31EB
:105A200039322C3136382C302C39390061742B67DF
:105A3000773D3139322C3136382C302C3939000051
:105A400061742B5549703D3139322E3136382E3044
:105A50002E39390061742B41616D3D390000000021
:105A600061742B41737369643D45342D426F6F74CB
:105A700000000000945A000800000020740200009A
:105A8000FA090008945B000874020020243D00001D
:105A90000401000811846CDC0200091C01020304EB
:105AA000060708090223013B7E46013C5E7E300169
:105AB0003A5E060A12314D19710916757996014F31
:105AC0000915C1133418422013A0591408605A1B39
:105AD00008E4081A54081AF0081119081A180411D1
:105AE000190C1A2C081AB8081A40081A78081A88CB
:105AF000041A98041AA8041AC4041ACC041A5804E4
:105B00001AB0041A18041A28041A38041A48041A75
:105B1000D4042A0C48012F0213FF1385531B0835A8
:105B2000044B1154501A5D0C13A9521B0805081A96
:105B3000F1041BDD39182AC2ED120813D93C1B08E9
:105B4000D50413D93B1B08A1081A3D0413F5331BD8
:105B500008490413AD361B081D0413C1351408EFA2
:105B6000381B08070C13F8011B202D401A65041A76
:105B700071041A99041AD1041A09041A4104032A57
:105B80001A031A3F301A39041A29041A3D041A3B21
:045B9000040000000D
:04000005080000C12E
:00000001FF
